:104A7C00123AF87F007EF81248E67FE87E03124B6C
:104A8C001B7FE87E03124B1B7FE07E071248E67FFC
:104A9C00E87E03124B1B7FE87E03124B1B7F1F7EAD
:104AAC00001248E67FE87E03124B1B7FE87E031260
:044ABC004B1B80BF51
:1000030000000000000000000000000000000404E5
:10001300040404040004000000140A0A00000000A1
:1000230000000000000014143F140A3F0A0A0000F5
:1000330000041E1505060C14150F0400000012150C
:100043000D0A142C2A1200000000040A0A1E1515BA
:100053000936000000020201000000000000000059
:1000630000201008080808080810200000020408EF
:10007300080808080804020000000004150E0E1505
:100083000400000000000404041F04040400000032
:100093000000000000000000000202010000000058
:1000A300001F00000000000000000000000000002E
:1000B3000002000000100808080404020202010004
:1000C30000000E1111111111110E000000000406A1
:1000D30004040404040E000000000E1111080402BD
:1000E300011F000000000E11100C1010110E000073
:1000F3000000080C0A0A091E0818000000001F016E
:10010300010F1010110E000000000E09010F111154
:10011300110E000000001F09080404040404000079
:1001230000000E11110E1111110E000000000E112E
:1001330011111E10120E0000000000000400000048
:10014300000400000000000000040000000404009C
:100153000020100804020408102000000000000022
:100163001F00001F000000000002040810201008F8
:100173000402000000000E11110804040004000032
:1001830000000E111915151D011E000000000404C6
:100193000C0A0A1E1233000000000F12120E121274
:1001A300120F000000001E1101010101110E0000D9
:1001B30000000F1212121212120F000000001F1281
:1001C3000A0E0A02121F000000001F120A0E0A0282
:1001D3000207000000001C1201013911120C00007B
:1001E30000003312121E12121233000000001F040B
:1001F30004040404041F000000003E080808080863
:1002030008090700000037120A060A0A123700001D
:100213000000070202020202223F000000001B1B33
:100223001B1B15151515000000003B1216161A1A94
:100233001217000000000E1111111111110E000010
:1002430000000F12120E02020207000000000E113E
:1002530011111117190E180000000F12120E0A12B5
:100263001237000000001E1101060810110F0000D4
:1002730000001F1504040404040E000000003312E0
:1002830012121212120C000000003312120A0A0C8E
:100293000404000000001515150E0A0A0A0A0000DE
:1002A30000001B0A0A04040A0A1B000000001B0AC0
:1002B3000A040404040E000000001F0908040402D9
:1002C300121F0000001C04040404040404041C00A2
:1002D300000202020404080808100000000E0808C7
:1002E3000808080808080E0000040A0000000000BF
:1002F3000000000000000000000000000000003FBC
:1003030000040000000000000000000000000000E6
:10031300000C121C123C000000000302020E121219
:10032300120E000000000000001C1202021C00005C
:1003330000001810101C1212123C000000000000F4
:10034300000C121E021C000000003804041E0404EA
:10035300041E000000000000003C120C021E221CC0
:1003630000000302020E1212123700000000040004
:1003730000060404040E000000000800000C080836
:100383000808080700000302023A0A0E12370000A9
:100393000000070404040404041F0000000000001C
:1003A300000F15151515000000000000000F1212B4
:1003B3001237000000000000000C1212120C0000A3
:1003C30000000000000F1212120E020700000000CE
:1003D300001C1212121C103800000000001B060241
:1003E3000207000000000000001E020C101E0000A7
:1003F30000000004040E04040418000000000000C0
:10040300001B1212123C0000000000000037120A09
:100413000C040000000000000015150E0A0A00007D
:1004230000000000001B0A040A1B0000000000007B
:100433000037120A0C04040300000000001E080425
:10044300041E00000018080808040808080818001B
:10045300080808080808080808080808000604042B
:100463000408040404040600022518000000000028
:100473000000000000000000000000000000000079
:100483000000000000000008080808080808000031
:100493001818000000486C2412000000000000003F
:1004A300000000000000002424247F1212127F1297
:1004B300121200000000081C2A2A0A0C1828282AF5
:1004C3002A1C080800000022251515152A58545423
:1004D300542200000000000C1212120A7625291182
:1004E300916E0000000606040300000000000000F7
:1004F3000000000000402010100808080808081039
:1005030010204000000204080810101010101008FA
:10051300080402000000000008086B1C1C6B08089C
:100523000000000000000000080808087F08080811
:1005330008000000000000000000000000000000B0
:10054300060604030000000000000000FE00000097
:100553000000000000000000000000000000000098
:100563000606000000008040402020101008080408
:100573000402020000000018244242424242424266
:1005830024180000000000080E08080808080808DE
:10059300083E00000000003C4242422020100804B4
:1005A300427E00000000003C4242201820404042AE
:1005B300221C0000000000203028242422227E2058
:1005C300207800000000007E0202021A264040420A
:1005D300221C0000000000382402021A2642424274
:1005E300241800000000007E2222101008080808CA
:1005F300080800000000003C424242241824424202
:10060300423C00000000001824424242645840402B
:10061300241C000000000000000018180000000067
:10062300181800000000000000000008000000008F
:100633000008080400000040201008040204081009
:10064300204000000000000000007F0000007F0049
:1006530000000000000000020408102040201008E1
:10066300040200000000003C4242464020101000FB
:10067300181800000000001C225A555555552D42EC
:10068300221C00000000000808181414243C224215
:1006930042E700000000001F2222221E22424242A3
:1006A300221F00000000007C4242010101010142BF
:1006B300221C00000000001F2242424242424242EA
:1006C300221F00000000003F4212121E12120242BB
:1006D300423F00000000003F4212121E12120202AB
:1006E300020700000000003C2222010101712122C7
:1006F300221C0000000000E7424242427E42424286
:1007030042E700000000003E08080808080808083F
:10071300083E00000000007C101010101010101094
:100723001010110F0000007722120A0E0A12122273
:100733002277000000000007020202020202020206
:10074300427F000000000077363636362A2A2A2AEE
:100753002A6B0000000000E346464A4A52525262A6
:10076300624700000000001C2241414141414141D8
:10077300221C00000000003F424242423E020202AD
:10078300020700000000001C2241414141414D533A
:10079300321C60000000003F4242423E12122222FD
:1007A30042C700000000007C42420204182040427D
:1007B300423E00000000007F4908080808080808B6
:1007C300081C0000000000E742424242424242420B
:1007D300423C0000000000E7424222242414141883
:1007E300080800000000006B494949495555362265
:1007F30022220000000000E74224241818182424B1
:1008030042E70000000000772222141408080808B9
:10081300081C00000000007E212010100804044280
:10082300423F00000078080808080808080808087C
:1008330008087800000002020404080808101020C9
:1008430020204040001E1010101010101010101027
:1008530010101E00003844000000000000000000DB
:100863000000000000000000000000000000000085
:10087300000000FF00060800000000000000000068
:1008830000000000000000000000003C42784442E9
:1008930042FC0000000000030202021A2642424208
:1008A300261A000000000000000000384402020283
:1008B3004438000000000060404040784442424217
:1008C30064D80000000000000000003C427E0202E9
:1008D300423C0000000000F08808087E0808080871
:1008E300083E0000000000000000007C22221C02E1
:1008F3003C42423C000000030202023A46424242AA
:1009030042E700000000000C0C00000E0808080875
:10091300083E000000000030300000382020202076
:100923002020221E0000000302020272120A161285
:10093300227700000000000E0808080808080808CD
:10094300083E0000000000000000007F9292929297
:1009530092B70000000000000000003B4642424204
:1009630042E70000000000000000003C4242424217
:10097300423C0000000000000000001B26424242EF
:10098300221E020700000000000000784442424299
:10099300447840E000000000000000774C040404A9
:1009A300041F0000000000000000007C42023C40E5
:1009B300423E0000000000000008083E0808080846
:1009C3000830000000000000000000634242424281
:1009D30062DC000000000000000000E74224241451
:1009E3000808000000000000000000EB49495555CD
:1009F30022220000000000000000007624181818CE
:100A0300246E000000000000000000E742242414CC
:100A130018080807000000000000007E22100808E4
:100A2300447E000000C02020202020102020202011
:100A33002020C000101010101010101010101010F3
:100A43001010101000060808080808100808080805
:100A5300080806000C32C20000000000000000007D
:100A630000000000C9EE000027FC140414A4811048
:100A730042084040104017FC2040E0E0215022484B
:100A83002C4620400040DBDA1104112411241124E8
:100A93001124FD24112411241124112411241D24B3
:100AA300E124422402040404CAD00200010000002D
:100AB3007FFC0100010001003FF821082108210803
:100AC30021082128211001000100C8AB000000000B
:100AD300018002400430180860061FF9010001007C
:100AE30001003FF80100010001007FFEB6AF0000E6
:100AF300000000203E20007C002200227F221022E2
:100B0300102212221222224223423D82009CB5E788
:100B13000000010001001FF0610C410441047FFC4F
:100B23004104410441047FFC01000102010201FC74
:100B3300D7D3000000003FF80010006000800100E0
:100B430000807FFE0040004000200020002018406D
:100B53000780BCBC00000000104013FE10407C4026
:100B6300104013FC1104190830885050106010D045
:100B730013087C06CAF500000100013001080100DA
:100B83007FFE018003400540052009101108210460
:100B9300410201000100D3D00000010002007FFEEA
:100BA300040008001FFC700490041FFC10041004D0
:100BB3001FFC10041004103CCFDE000000007BFC7F
:100BC3004A044A044BFC52044A044BFC4A404A443C
:100BD3007A2842304210420843C6B9AB00000000F5
:100BE30004400420081010101008210442020220BF
:100BF30004100810080810081FFC0004CBBE0000F6
:100C030000003FFC000400043FF400043FE4202400
:100C130020242024202420241FC40004007CBBB6ED
:100C23000000000000807EFC02A202A222A4152480
:100C330014240C300C300C481248228442840102E4
:100C4300D3AD000000002398246414440444644496
:100C5300144414441444144415C4125C1040284032
:100C630047FEC4FA00000000120013FE24222522CE
:100C7300652862242224242020E0050814842444C7
:100C8300241A47F2B4BF00000020102013FE2020D6
:100C930026244A247A241224222423FC7C200022A2
:100CA30004227822003CC9AB0000000004000FF0CE
:100CB300102020207FFC20842084208420843FF87F
:100CC3002000200220021FFECCEE00000000204086
:100CD30023FE204079FC220423FC220423FC22046B
:100CE30023FC3A0465FA01980204B3E4000001000E
:100CF30001007FFE02200410040808043FFC0442A4
:100D030004400440044208421042607EBED8000002
:100D13000000207E3E804880488048FE48827F82D3
:100D230008820C8214FA12842280218040FED0CEE5
:100D3300000000007F842208223022C02202220405
:100D43007FC8223022C222022204220822304040DD
:100D5300BBAD000000007FFE00000FF0111011106A
:100D6300111051125FF25112511251124FF24002FF
:100D73007FFCD4B2000000007FFE47E24812481215
:100D830047E24FF2501250125112511242924472E2
:100D9300580A3FFCCDBC000000003FFE440247F26E
:100DA3004C225362408243625E1A41824062430294
:100DB30040C240223FFCC6AC00000040204020401F
:100DC30020403FFE2000200020003FE020102010A4
:100DD3002010201040104010CFD4000000003FFC32
:100DE300200420043FFC200420041FF8244414485A
:100DF300144814480C5004407FFECABE0000000093
:100E03003FFC0000000000007FFE0080089008887F
:100E1300108810842084208240820780B2CB000097
:100E2300002008207FFE002000783F8811080890EA
:100E330009207FFE018003400D30310C4002B5A52F
:100E430000000010081004203FF8210421043FFC97
:100E5300210421043FF801007FFE0100010001008D
:100E6300D6D000000100010001003FFC2104210451
:100E730021042104210421043FFC0100010001009D
:100E83000100D3A20000000008207FFE08200920F3
:100E930001003FF82108210821081FF40140022026
:100EA3000C10700ECEC400000100010000803F7CD6
:100EB3000810081004100420022002400180018061
:100EC30002601C18E006D7DB00000000102011FEB2
:100ED3002202220249FC5800300013FE25287924FF
:100EE30001240D24722202A2BACF00000000018067
:100EF30002400430180860061FF800001FF82004A1
:100F030020042004200420041FF8C1C100000100B4
:100F130001007FFE00003FF820083FF83FF840063D
:100F230047C24824082008221022603EB6C80000A9
:100F3300000000803FFE44105FFC4410441043F067
:100F430040005FF84408423041C04360BC1EB2E237
:100F53000000000067C2145205520552C5522552C3
:100F63000552055215521752228222424442483EEC
:100F7300CAD4000000002014101417FE0012001041
:100F8300601013F0109010901090149214EA1F0A3E
:100F93000006B3CC0000000019FE72021202120216
:100FA3007DFC18001BFE3420502053FE102010201F
:100FB300102013FED0F20000000000803FFE40002E
:100FC30047FC4208413040C05FFE4042404240443B
:100FD300404840404440B5F70000000023FE122281
:100FE30002FA0222E22212FE1272128A128A128A72
:100FF30016BA1A421202040EB9E2000001000104FB
:1010030011080908091009207FFE04400440044028
:101013000440084208421042607CB0E60000000031
:1010230048FE4900490049007EFE4182414479441B
:10103300452845284510452846440382C8A8000092
:101043001000100013FC7D04110419041884348863
:101053005048505010201050108813041402CBF93C
:10106300000000003F7C204020403E40227E22447E
:10107300224422443E842084208440844104420448
:10108300C9EE0000000000001000000800080C7FFB
:10109300FC04401001C8A002186042301832231823
:1010A30012C30014030004030C047FF0080F80082C
:1010B3000B4078136018332018631818831C190326
:1010C30008180300000300000000DBDA0000000042
:1010D300000004100C04180C04108C04108C041071
:1010E3008C04108C04D08C3F108C04108C04108C56
:1010F30004108C04108C04108C04108C05F08C0EDE
:10110300208C78208C20408C00808C01000C020005
:101113000C000000CAD000000000000000300000F6
:10112300180000180800001C1FFFE000180000183A
:101133002007FFF0041820041820041820041820A6
:10114300041820041820041820041820041820046C
:1011530018E0041840001800001800000000D6D062
:101163000000000000000000000000000018000064
:1011730018000018000018003FFFFE301806301852
:10118300063018063018063018063FFFFE301806E2
:1011930000180000180000180000180000180000D4
:1011A3000000000000000000CEC4000000000000AA
:1011B300000000003800001C00000600FFFFFF06CF
:1011C30000300600300300600300600180C000C1EE
:1011D3008000E300003600001C0000770003C1E03C
:1011E3001E003C600007000000000000000000003B
:1011F3000000B2E200000000000000000000000058
:1012030040000321FF33398333118333019B33C1FF
:101213009B33719B33199B33019B33019B33119B8D
:101223003319B333303033306C0330C60363830375
:101233002E01BE000000000000000000CAD4000020
:10124300000000000000000000004000D83000CE85
:101253001800C21C00C001FFFF0000C0F800C01846
:1012630000C019FFC01818401818601918601B181F
:10127300611E18311C1FB139F01910000F00000056
:10128300000000000000D7D60000000000060000A8
:10129300000300000000C0000001C0C0000107C03F
:1012A3000001FF00021FFE0007F01C0007C07000D2
:1012B3000F00E0000E03F0001C0FF0003C0F700065
:1012C3003C00E0001800C0000000C0000000C000A7
:1012D3000000600000002000000037000001FF0054
:1012E300007FF80007F830001F80300000803000D6
:1012F30000C03000006060000018E000000FC00074
:101303000006000000000000CCE500000000000023
:101313000000000000C0000000E0002001B80070E1
:101323003FF80061FFC000C3030001C60600038C41
:10133300060003080C0006080C000E18183F1E10C8
:101343001BF31F903F0700803C1C0190707C0190B1
:1013530060FE01A0C3F801A00FD803A00818036022
:1013630000180340001803C000180380001803008E
:1013730000180000001800000010000000300000FA
:1013830000300000000000000000B2E20000000096
:10139300000000000000000000000000020C100824
:1013A300071FF80403BFF00201BC300303EC300352
:1013B300015C600300D8600300D860038098620377
:1013C30061B8430771B14306313243063376C3062E
:1013D3003A64C7063EECC0063E78C0063C30400681
:1013E3007C70000678E060067BFFF006F7C000061D
:1013F300E400000640000006000000060000007C38
:1014030000008FF000007C0000000000CAD4000040
:101413000000000000000000000000003F0000008A
:101423007F8000000180000000C0000000C00000B9
:1014330000CE038000CFFFC000DD41800FFE000718
:10144300FFFC000C00F000180FC03E19FF40F31121
:10145300BC6083307FE003B1FE2003338020037040
:101463000030036000100360001807C0000C07C0C1
:1014730000040780000201000003000000010000D7
:0E14830000000000000000000000000000005B
:104AC0009000E2FEE0FCA3E0FD9000E1E02DFD900F
:0D4AD00000E0E03CFC9000E6E0FAA3E0FB13
:104ADD00900119EAF0A3EBF0124B8C900119A3E0B1
:044AED00FF024C2652
:0E404C00900058EEF0A3EFF0A3ECF0A3EDF01F
:10405A00900058E0FEA3E0FFC3EB9FFFEA9ECF2447
:10406A0001CF3400900066F0A3EFF090005AE0FE12
:10407A00A3E0FFC390005FE09FFF90005EE09ECF49
:10408A002401CF3400900068F0A3EFF090005AE0CA
:10409A00FCA3E0FDEB24FFFBEA34FFFA90005EE0AC
:1040AA00FEA3E024FFFFEE34FF9000D1F0A3EFF06F
:1040BA00900058E0FEA3E0FF1249E6E4900062F0A7
:1040CA00A3F0900068E0FEA3E0FFC3900063E09FC6
:1040DA00900062E09E5045E4900064F0A3F09000E6
:1040EA0066E0FEA3E0FFC3900065E09F900064E0F5
:1040FA009E5019900060A3E0FF124C26900065E0E4
:10410A0004F070DA900064E004F080D2900063E07A
:10411A0004F070AE900062E004F080A6900081E0A6
:10412A0024FFFB900080E034FFFA900083E024FF34
:10413A00FE900082E034FF9000D1F0A3CEF0E4FDBF
:06414A00FCFFFE0249E645
:0E372B00900000EEF0A3EFF0A3ECF0A3EDF0A1
:10373900E490000AF0A3F0A3F0A3F0900000E0FEEB
:10374900A3E0FFC3EB9FFFEA9E90000EF0A3EFF00A
:10375900900002E0FAA3E0FBC3900007E09BFE9013
:103769000006E09A900010F0A3CEF0900000E0FF70
:10377900A3E0900018CFF0A3EFF0A3EAF0A3EBF0D9
:1037890090000EE0FEA3E0FFD39400EE64809480E5
:10379900400A900014E4F0A304F08021EF4E700871
:1037A900900014F0A3F0801574FF900014F0A3F0BA
:1037B900C3E49FFFE49E90000EF0A3EFF090001089
:1037C900E0FEA3E0FFD39400EE64809480400A9069
:1037D9000016E4F0A304F08021EF4E700890001663
:1037E900F0A3F0801574FF900016F0A3F0C3E49FD6
:1037F900FFE49E900010F0A3EFF0900010E0FEA30C
:10380900E0FF90000EE0FCA3E0FDD39FEE6480F89A
:10381900EC6480989000124007ECF0A3EDF080056D
:10382900EEF0A3EFF0E4900008F0A3F0900013E0AD
:103839002401FF900012E03400FED3900009E09FBC
:10384900900008E09E4003023915900018E0FEA39D
:10385900E0FFA3E0FCA3E0FD124AF190000EE0FEB8
:10386900A3E0FF90000BE02FF090000AE03EF090FB
:103879000010E0FEA3E0FF90000DE02FF090000C97
:10388900E03EF0900012E0FEA3E0FF90000AE0FCA9
:10389900A3E0FDD39FEE6480F8EC6480984020EDAE
:1038A9009FFFEC9E90000AF0A3EFF0900014E0FE59
:1038B900A3E0FF900019E02FF0900018E03EF0908F
:1038C9000012E0FEA3E0FF90000CE0FCA3E0FDD3B2
:1038D9009FEE6480F8EC6480984020ED9FFFEC9E99
:1038E90090000CF0A3EFF0900016E0FEA3E0FF902B
:1038F900001BE02FF090001AE03EF0900009E00470
:0C390900F07006900008E004F002383571
:01391500228F
:10471E009000FFEAF0A3EBF09000FBEEF0A3EFF0B9
:10472E00A3ECF0A3EDF0C007A3E0FAA3E0FB90002A
:10473E00FDE0FFA3E0900006CFF0A3EFF0D007124C
:10474E00372B9000FBE0FAA3E0FBFFAE02C007A3FD
:10475E00E0FCA3E0FD900101E0FFA3E0900006CF96
:10476E00F0A3EFF0D00712372B900101E0FCA3E08D
:10477E00FD9000FFE0FAA3E0FBA3E0FFA3E09000B2
:10478E0006CFF0A3EFF09000FBE0FEA3E0FF1237A0
:10479E002B9000FFE0FAA3E0FBFFAE02C0079000F3
:1047AE00FDE0FCA3E0FD900101E0FFA3E090000618
:0A47BE00CFF0A3EFF0D00702372B75
:104B6700C007900109E0FFA3E090005ECFF0A3EF3C
:104B7700F090007CE0FFA3E0900060CFF0A3EFF09F
:054B8700D00702404CC4
:103DFE009000E4F0A3EFF090006EE0FFA3E09000DF
:0E3E0E00E6CFF0A3EFF090006AE0FEA3E0FF25
:103E1C009000E0ECF0A3EDF09000DEEEF0A3EFF0FC
:103E2C009000E2EAF0A3EBF02FFFEE3AA3124AC3A4
:103E3C009000E2E0FEA3E0FFC39000DFE09FFF9064
:103E4C0000DEE09EFE9000E4124AC49000E2E0FE28
:103E5C00A3E0FF9000DFE02FFF9000DEE03EFE903D
:103E6C0000E4E0FCA3E0FDC39000E1E09DFD9000C8
:103E7C00E0E09C124AD49000E2E0FEA3E0FFC39085
:103E8C0000DFE09FFF9000DEE09EFE9000E4E0FC8F
:103E9C00A3E0FDC39000E1E09DFD9000E0E09C12EA
:103EAC004AD49000E4E0FEA3E0FF9000DFE02FFF97
:103EBC009000DEE03E124AC09000E4E0FEA3E0FF7A
:103ECC00C39000DFE09FFF9000DEE09E124AC0909E
:103EDC0000E4E0FEA3E0FF9000DFE02FFF9000DEA7
:103EEC00E03EFE9000E2E0FCA3E0FDC39000E1E0C8
:103EFC009DFD9000E0E09C124AD49000E4E0FEA30B
:103F0C00E0FFC39000DFE09FFF9000DEE09EFE909C
:103F1C0000E2E0FCA3E0FDC39000E1E09DFD900019
:0F3F2C00E0E09CFC9000E6E0FAA3E0FB024ADD37
:1035350090006AEEF0A3EFF0A3ECF0A3EDF0A3EAA0
:04354500F0A3EBF014
:10354900E4900074F0A3F0900070E0FEA3E0FF9017
:103559000076EEF0A3EFF025E0FFEE33FEC374032F
:103569009F90007BF0E49E90007AF0900072E070EA
:1035790002A3E07003023678900076E0FEA3E0FF34
:10358900900074E0FCA3E0FDD39FEE6480F8EC6446
:103599008098400302372A900078ECF0A3EDF09070
:1035A9000076E0FEA3E0FFD3900079E09FEE64800F
:1035B900F8900078E0648098502B90006CE0FCA3B0
:1035C900E0FD900074E0FAA3E0FB900078E0FFA32F
:1035D900E0CF123DFE900079E004F070C2900078CF
:1035E900E004F080BA90007AE0FCA3E0FDC3EC644B
:1035F9008094805023900074E0FEA3E07802C333E6
:10360900CE33CED8F92DFFEC3ECF2406CF3400902F
:10361900007AF0A3EFF08043900076E0FEA3E0FF8C
:10362900C3900075E09FFF900074E09EFEEF780262
:10363900C333CE33CED8F9FF90007BE02FFF900043
:103649007AE03ECF240ACF3400F0A3EFF090007760
:10365900E024FFF0900076E034FFF0900075E0047C
:10366900F06003023581900074E004F00235819026
:103679000076E0FEA3E0FF900074E0FAA3E0FBD33C
:103689009FEE6480F8EA648098400302372A90002C
:103699006CE0FCA3E0FDEE123DFE90007AE0FCA395
:1036A900E0FDC3EC648094805023900074E0FEA395
:1036B900E07802C333CE33CED8F92DFFEC3ECF24C8
:1036C90006CF340090007AF0A3EFF08043900076A3
:1036D900E0FEA3E0FFC3900075E09FFF900074E057
:1036E9009EFEEF7802C333CE33CED8F9FF90007B2C
:1036F900E02FFF90007AE03ECF240ACF3400F0A3F8
:10370900EFF0900077E024FFF0900076E034FFF0CE
:10371900900075E004F07006900074E004F0023641
:013729007827
:01372A00227C
:10331F00F09000A9E0900097F09000A1E0FAA3E0F0
:01332F00FBA2
:1033300090008DEEF0A3EFF0900091EAF0A3EBF097
:0833400090008FECF0A3EDF00A
:1033480090007CE0FFA3E090009BCFF0A3EFF0900B
:103358000095E024E0F0A3E0F9C313FF7E0090009D
:103368008DE0FAA3E02FFFEE3ACF24FFFBEF34FF06
:10337800FAE9FFA3E0F8A3E02FFFEE38CF24FFCF50
:1033880034FF9000D1F0A3EFF090008DE0FEA3E0B1
:10339800FF1249E6900097E0600302343D900099DF
:1033A800F0900096E0FF900099E0FEC39F40030272
:1033B80034FCEFB40C17900095E075F00CA42403CE
:1033C800F582E5F03400F583E5822E801A900099A5
:1033D800E0FF900095E075F010A42477F582E5F001
:1033E8003404F583E5822FF582E43583F583E4938D
:1033F800900098F0E490009AF0900096E0C313FFD4
:1034080090009AE0C39F5024900098E030E0059027
:1034180000918003900093A3E0FF124C269000983F
:10342800E0C313F090009AE004F080CD900099E09A
:1034380004F00233A9E4900099F0900096E0FF9020
:103448000099E0FEC39F40030234FCEFB40C1790D0
:103458000095E075F00CA42403F582E5F03400F53E
:1034680083E5822E801A900099E0FF900095E07520
:10347800F010A42477F582E5F03404F583E5822F73
:10348800F582E43583F583E493900098F0E49000A6
:103498009AF0900096E0C313FF90009AE0FEC39F55
:1034A8005049900091E0FDA3E090007CCDF0A3EDA1
:1034B800F0900098E030E024EEFF90008EE02FFFBF
:1034C80090008DE03400FE900099E0FD900090E0BF
:1034D8002DFD90008FE03400FC124AF1900098E036
:1034E800C313F090009AE004F080A7900099E004DC
:1034F800F002344290009BE0FFA3E090007CCFF004
:10350800A3EFF0900081E024FFFB900080E034FFFF
:10351800FA900083E024FFFE900082E034FF9000E0
:0D352800D1F0A3CEF0E4FDFCFFFE0249E669
:10459C009000F2EEF0A3EFF0A3ECF0A3EDF0A3EBA0
:1045AC00F09000F7E0FBA3E0FAA3E0F9122ED8FF9D
:1045BC00D3947E400302465DEFC394205003024621
:1045CC005D900081E024FFFD900080E034FFFC90C2
:1045DC0000F2E0FEA3E0FFD39DEE9C5074900083AC
:1045EC00E024FFFB900082E034FFFA9000F4E0FC42
:1045FC00A3E0FDD39BEC9A505890007EE0FBA3E027
:10460C00900093CBF0A3EBF09000F7E0FBA3E0FA63
:10461C00A3E0F9122ED8900095F09000F6E09000EF
:10462C0096F09000FAE0900097F090007C12332BFB
:10463C009000F6E0C313FF9000F3E02FF09000F22F
:10464C00E03400F09000F8E475F001122F7302458D
:02465C00AD228D
:084A330090010BEFF0A3EDF080
:104A3B00A31230C80000000190010CE0FF14F0EF4E
:104A4B006020A3E0F8A3E0F9A3E0FAA3E0FB900158
:104A5B000BE0FFE4FCFDFE122F9F90010D1230BC0A
:104A6B0080D690010DE0FCA3E0FDA3E0FEA3E0FFE8
:014A7B002218
:0E3F3B009000ADEEF0A3EFF0A3ECF0A3EDF0DC
:103F4900E49000B9F09000B7F09000B5E0FF900060
:103F5900B7E0FEC39F400302404BC3EF9E14FD7FB1
:103F69000A124A33A804A905AA06AB079000B1E0D2
:103F7900FCA3E0FDA3E0FEA3E0FF12302AE47B0AE4
:103F8900FAF9F812302A9000B8EBF0A3E0705790D4
:103F990000B5E014FF9000B7E0FEC39F5048A3E0CE
:103FA900703E9000B6E0F9C3138EF0A4FF9000AE06
:103FB900E02FFF9000ADE035F0FEC0079000AFE0C4
:103FC900FCA3E0FD90007CE0FAA3E0FB90007EE01A
:103FD900FFA3E0900093CFF0A3EFF0A37420804DEE
:103FE9009000B97401F09000B6E0F9C313FFA3E0A3
:103FF900FEEF8EF0A4FF9000AEE02FFF9000ADE041
:1040090035F0FEC0079000AFE0FCA3E0FD90007C16
:10401900E0FAA3E0FB90007EE0FFA3E0900093CFDD
:10402900F0A3EFF09000B8E02430900095F0A3E9F8
:10403900F0E4A3F0D0071233309000B7E004F002A7
:024049003F52E4
:01404B002252
:1028150090001EECF0A3EDF0A3EAF0A3EBF090001E
:062825001CEEF0A3EFF031
:10282B0090002EEEF0A3EFF090002CE4F0A3742EAA
:10283B00F0E490002AF0A3F090002CE0FEA3E0FF60
:10284B0090002AE0FCA3E0FDC39FEC9E4003022A0C
:10285B002C900024E0FBA3E0FAA3E0F9122ED8FFA2
:10286B00900A6775F022ED1230F9EC75F022A42571
:10287B0083F583E4936F6003022A1B900001122EF1
:10288B00F1FF90002AA3E0900A6875F0221230F94C
:10289B00EC75F022A42583F583E4936F6003022A81
:1028AB001B90001CE0FAA3E0FBFFAE02C006C007C2
:1028BB00A3E0FCA3E0FDEB240FFBE43AFA90001E2F
:1028CB00E0FEA3E0240FFFE43E9000D1F0A3EFF075
:1028DB00D007D0061249E6E4900028F0E4900029D6
:1028EB00F0900029E0FFC394084003022A0C9000EB
:1028FB0027E07058A3E0FE90002AE0FCA3E0900ACA
:10290B006975F0221230F9EC75F022A42583F5835A
:10291B00E5822EF582E43583F583E493FD3395E070
:10292B00FC74807E00A807088006CEA2E713CE13A6
:10293B00D8F8FFEE5CFEEF5D4E6005900020800343
:10294B00900022A3E0FF124C26022A03900020E005
:10295B00FFA3E090007CCFF0A3EFF0900028E0FF06
:10296B0090002AE0FCA3E0900A6975F0221230F97E
:10297B00EC75F022A42583F583E5822FF582E435EF
:10298B0083F583E493FD3395E0FC900029E0FF741D
:10299B00807E00A807088006CEA2E713CE13D8F8D6
:1029AB00FFEE5CFEEF5D4E601190001CE0FEA3E0BD
:1029BB00FFA3E0FCA3E0FD124AF190001DE004F040
:1029CB00700690001CE004F090002EE0FEA3E0FFE8
:1029DB00C390001DE09FFD90001CE09EFCED641079
:1029EB004C7015EEF0A3EFF090001FE004F07011A7
:1029FB0090001EE004F08009900029E004F002280A
:102A0B00EC900028E004F0E0C3942050030228E788
:102A1B0090002BE004F0700690002AE004F00228EE
:102A2B0043900081E024FFFB900080E034FFFA909C
:102A3B000083E024FFFE900082E034FF9000D1F091
:0B2A4B00A3CEF0E4FDFCFFFE0249E614
:102A5600900032ECF0A3EDF0A3EAF0A3EBF09000C7
:062A660030EEF0A3EFF0DA
:102A6C00900042EEF0A3EFF0900040E4F0A3740766
:102A7C00F0E490003EF0A3F0900040E0FEA3E0FFF5
:102A8C0090003EE0FCA3E0FDC39FEC9E4003022CB3
:102A9C006D900038E0FBA3E0FAA3E0F9122ED8FF0A
:102AAC0090108375F04AED1230F9EC75F04AA425BC
:102ABC0083F583E4936F6003022C5C900001122E6B
:102ACC00F1FF90003EA3E090108475F04A1230F9AB
:102ADC00EC75F04AA42583F583E4936F6003022C14
:102AEC005C900030E0FAA3E0FBFFAE02C006C0072A
:102AFC00A3E0FCA3E0FDEB2417FBE43AFA900032D0
:102B0C00E0FEA3E02417FFE43E9000D1F0A3EFF029
:102B1C00D007D0061249E6E490003CF0E490003D6A
:102B2C00F090003DE0FFC394084003022C4D900050
:102B3C003BE07058A3E0FE90003EE0FCA3E0901058
:102B4C008575F04A1230F9EC75F04AA42583F583AB
:102B5C00E5822EF582E43583F583E493FD3395E02D
:102B6C00FC74807E00A807088006CEA2E713CE1363
:102B7C00D8F8FFEE5CFEEF5D4E60059000348003EC
:102B8C00900036A3E0FF124C26022C44900034E057
:102B9C00FFA3E090007CCFF0A3EFF090003CE0FFAF
:102BAC0090003EE0FCA3E090108575F04A1230F9DD
:102BBC00EC75F04AA42583F583E5822FF582E43584
:102BCC0083F583E493FD3395E0FC90003DE0FF74C6
:102BDC00807E00A807088006CEA2E713CE13D8F893
:102BEC00FFEE5CFEEF5D4E6011900030E0FEA3E066
:102BFC00FFA3E0FCA3E0FD124AF1900031E004F0E9
:102C0C007006900030E004F0900042E0FEA3E0FF7C
:102C1C00C3900031E09FFD900030E09EFCED641805
:102C2C004C7015EEF0A3EFF0900033E004F070114F
:102C3C00900032E004F0800990003DE004F0022B9B
:102C4C002D90003CE004F0E0C394485003022B2884
:102C5C0090003FE004F0700690003EE004F0022A81
:102C6C0084900081E024FFFB900080E034FFFA9018
:102C7C000083E024FFFE900082E034FF9000D1F04E
:0B2C8C00A3CEF0E4FDFCFFFE0249E6D1
:102C9700900046ECF0A3EDF0A3EAF0A3EBF0900070
:062CA70044EEF0A3EFF083
:102CAD00900056EEF0A3EFF0900054E4F0A37404FE
:102CBD00F0E4900052F0A3F0900054E0FEA3E0FF8A
:102CCD00900052E0FCA3E0FDC39FEC9E4003022E5A
:102CDD00AE90004CE0FBA3E0FAA3E0F9122ED8FF72
:102CED0090128975F082ED1230F9EC75F082A42501
:102CFD0083F583E4936F6003022E9D900001122EE5
:102D0D00F1FF900052A3E090128A75F0821230F913
:102D1D00EC75F082A42583F583E4936F6003022E96
:102D2D009D900044E0FAA3E0FBFFAE02C006C00791
:102D3D00A3E0FCA3E0FDEB241FFBE43AFA90004670
:102D4D00E0FEA3E0241FFFE43E9000D1F0A3EFF0DE
:102D5D00D007D0061249E6E4900050F0E4900051FF
:102D6D00F0900051E0FFC394084003022E8E9000B6
:102D7D004FE07058A3E0FE900052E0FCA3E09012EB
:102D8D008B75F0821230F9EC75F082A42583F583F2
:102D9D00E5822EF582E43583F583E493FD3395E0EA
:102DAD00FC74807E00A807088006CEA2E713CE1320
:102DBD00D8F8FFEE5CFEEF5D4E6005900048800395
:102DCD0090004AA3E0FF124C26022E85900048E0A9
:102DDD00FFA3E090007CCFF0A3EFF0900050E0FF58
:102DED00900052E0FCA3E090128B75F0821230F946
:102DFD00EC75F082A42583F583E5822FF582E43509
:102E0D0083F583E493FD3395E0FC900051E0FF746E
:102E1D00807E00A807088006CEA2E713CE13D8F84F
:102E2D00FFEE5CFEEF5D4E6011900044E0FEA3E00E
:102E3D00FFA3E0FCA3E0FD124AF1900045E004F091
:102E4D007006900044E004F0900056E0FEA3E0FF11
:102E5D00C3900045E09FFD900044E09EFCED642092
:102E6D004C7015EEF0A3EFF0900047E004F07011F8
:102E7D00900046E004F08009900051E004F0022D2E
:102E8D006E900050E004F0E0C394805003022D6971
:102E9D00900053E004F07006900052E004F0022C14
:102EAD00C5900081E024FFFB900080E034FFFA9094
:102EBD000083E024FFFE900082E034FF9000D1F00B
:0B2ECD00A3CEF0E4FDFCFFFE0249E68E
:1023320090009FECF0A3EDF0A3EAF0A3EBF0900085
:062342009DEEF0A3EFF098
:102348009000AAEEF0A3EFF0E4A3F09000A5E0FB64
:10235800A3E0FAA3E0F9122ED870030225D2900068
:10236800ACE060030224949000A8E0FFC313FDC30F
:10237800900081E09DFD900080E09400FCD39000E7
:102388009EE09D90009DE09C40030225D2C39000F2
:1023980083E09FFF900082E09400FE90009FE0FCA5
:1023A800A3E0FDD39FEC9E40030225D29000A5E058
:1023B800FBA3E0FAA3E0F9122ED8FFD394804008DB
:1023C8009000AC7401F08083EFB40D2E9000A8E06B
:1023D800FF9000A0E02FF090009FE03400F0900004
:1023E800AAE0FFA3E090009DCFF0A3EFF09000A635
:1023F800E475F001122F730224879000A8E0D394AB
:102408001090009DE0FEA3E0FF402F9000A3E0FBAA
:10241800A3E0900093CBF0A3EBF09000A5E0FBA322
:10242800E0FAA3E0F9122ED8900095F0A3741012E8
:10243800331F90009EE02408803DA3E0FCA3E0FD4C
:102448009000A3E0FBA3E0900093CBF0A3EBF09007
:1024580000A5E0FBA3E0FAA3E0F9122ED8900095BE
:10246800F09000A8E090009612331F9000A8E0C3F7
:1024780013FF90009EE02FF090009DE03400F09054
:1024880000A6E475F001122F730223539000A8E010
:10249800F9FF7E00C3900081E09FFD900080E09EE0
:1024A800FCD390009EE09D90009DE09C4003022597
:1024B800D2C3900083E09FFF900082E09EFE9000D0
:1024C8009FE0FCA3E0FDD39FEC9E40030225D2E4ED
:1024D8009000ACF0E9B4204290009DE0FEA3E0FF3C
:1024E8009000A3E0FBA3E090004ACBF0A3EBF090B0
:1024F80000A5E0F9A3E0FAA3E090004CC9F0A3EA34
:10250800F0A3E9F09000A9E090004FF09000A1E05E
:10251800FAA3E0FB122C970225B39000A8E06418F8
:1025280090009D7044E0FEA3E0FFA3E0FCA3E0FD63
:102538009000A3E0FBA3E0900036CBF0A3EBF09073
:1025480000A5E0F9A3E0FAA3E0900038C9F0A3EAF7
:10255800F0A3E9F09000A9E090003BF09000A1E022
:10256800FAA3E0FB122A568042E0FEA3E0FFA3E0B4
:10257800FCA3E0FD9000A3E0FBA3E0900022CBF0D9
:10258800A3EBF09000A5E0F9A3E0FAA3E090002403
:10259800C9F0A3EAF0A3E9F09000A9E0900027F0C1
:1025A8009000A1E0FAA3E0FB1228159000A6E475BC
:1025B800F002122F739000A8E0FF90009EE02FF029
:0A25C80090009DE03400F002235360
:0125D20022E6
:1047C8009000BAEEF0A3EFF0A3ECF0A3EDF0A3EAAB
:0447D800F0A3EBF06F
:1047DC009000C2E0FBA3E0FAA3E0F9124C0CEF78D6
:1047EC0003C333CE33CED8F9FFC3900081E09FFFD3
:1047FC00900080E09EC313FEEF13FF9000BBE02FF0
:10480C00FF9000BAE03EFE9000BCE0FCA3E0FD90FF
:10481C0000C0E0FBA3E09000A3CBF0A3EBF0900072
:10482C00C2E0F9A3E0FAA3E09000A5C9F0A3EAF076
:10483C00A3E9F09000C5E09000A8F09000C6E090CD
:0E484C0000A9F09000BEE0FAA3E0FB022332C8
:10440C009000D3EEF0A3EFF09000D7EBF0A3EAF01E
:0B441C00A3E9F09000D5ECF0A3EDF058
:104427009000D3E0FAA3E0FFAE02C006C00724273E
:10443700FBE43AFAA3E0FEA3E02427FFE43E900062
:10444700D1F0A3EFF0D007D0061249E6E49000DAE6
:10445700F0A3F09000DAE0FEA3E0FFC39440EE641F
:104467008094865043EF25E0FFEE33FE9000D7E0BF
:10447700FBA3E0FAA3E0F98F828E83122EF190005E
:10448700DDF0E92FF9EA3EFA900001122EF19000D3
:10449700DCF0A3E0FF124C269000DBE004F070B3E1
:1044A7009000DAE004F080AB900081E024FFFB90FD
:1044B7000080E034FFFA900083E024FFFE90008242
:1044C700E034FF9000D1F0A3CEF0E4FDFCFFFE0244
:0244D70049E6B4
:10149100514474656368B0E6C8A8CBF9D3D000C8DD
:1014A100ABB6AFB5E7D7D3D7DBBACFB2E2CAD4B3C5
:1014B100CCD0F200C8ABB6AFB5E7D7D300D7DBBA13
:1014C100CFB2E2CAD4B3CCD0F200322E34272049B5
:1014D1004C4939333431203234305833323000788A
:1014E10069616F46656E6740514474656368203277
:1014F1003031382D30382D323000B2E2CAD4313A91
:10150100B4BFC9ABCCEEB3E4B2E2CAD40057686948
:10151100746500426C61636B0052656400477265DB
:10152100656E00426C756500B2E2CAD4323A475525
:1015310049BED8D0CECCEEB3E4B2E2CAD400B2E216
:10154100CAD4333A475549BBADD4B2CCEEB3E4B2B9
:10155100E2CAD400B2E2CAD4343AD3A2CEC4CFD4C0
:10156100CABEB2E2CAD400365831323A616263640B
:1015710065666768696A6B6C6D6E6F7071727374A2
:1015810075767778797A00365831323A4142434458
:1015910045464748494A4B4C4D4E4F503031323306
:1015A10034353637383900365831323A7E214023C6
:1015B10024255E262A28295F2B7B7D3A3C3E3F2F3E
:1015C1007C2D2B2E00385831363A61626364656692
:1015D1006768696A6B6C6D6E6F7071727374757622
:1015E1007700385831363A414243444546474849E5
:1015F1004A4B4C4D4E303132333435363700385842
:1016010031363A7E21402324255E262A28295F2B64
:101611007B7D3A3C3E3F2F7C00B2E2CAD4353AD6BC
:10162100D0CEC4CFD4CABEB2E2CAD400313658310A
:10163100363AC8ABB6AFB5E7D7D3BCBCCAF5D3D041
:10164100CFDEB9ABCBBEBBB6D3ADC4FA0031365891
:1016510031363A57656C636F6D65C8ABB6AFB5E7A8
:10166100D7D30032345832343AC9EEDBDACAD0D695
:10167100D0CEC4B2E2CAD40033325833323AD7D6CC
:10168100CCE5B2E2CAD400B2E2CAD4363ACDBCC685
:10169100ACCFD4CABEB2E2CAD400515100B2E2CA40
:1016A100D4373A546F756368B2E2CAD400525354C6
:1016B10000FFFFFFFFFFFFFFFFFFFFFFFFFFFFFF38
:1016C100FFFFFFFFFFFFFFFFFFFFFFFFFFFFFFBE6A
:1016D100F7FFFFDEFF38C6928C8E6B6E6B107C9627
:1016E100AD3CE7FFFFFFFFFFFFFFFFFFFFFFFFFF36
:1016F100FFFFFFFFFFFFFFFFFFFFFFFFFFFFFFFFF9
:10170100FFFFFFFFFFFFFFFFFFFFFFFFFFFFFFFFE8
:10171100FFFFFFFFFFFFFFFFFFFFFFFFFFFFFF5D7A
:10172100EF159D4F636C420A3288294619251945E8
:1017310021E8318E6B38C6FFFFFFFFFFFFFFFFFF80
:10174100FFFFFFFFFFFFFFFFFFFFFFFFFFFFFFFFA8
:10175100FFFFFFFFFFFFFFFFFFFFFFFFFFFFFFFF98
:10176100FFFFFFFFFFFFFFFFFFFFFFFFFF36A5109A
:1017710053104B51530F4B6C3AE93167212519E452
:1017810010A30862008308CB529AD6FFFFFFFFFF28
:10179100FFFFFFFFFFFFFFFFFFFFFFFFFFFFFFFF58
:1017A100FFFFFFFFFFFFFFFFFFFFFFFFFFFFFFFF48
:1017B100FFFFFFFFFFFFFFFFFF3CE77063B363B86D
:1017C1007CF56311434D32EA298821261905190553
:1017D1001904110411E4108300A308728CFFFFFFA8
:1017E100FFFFFFFFFFFFFFFFFFFFFFFFFFFFFFFF08
:1017F100FFFFFFFFFFFFFFFFFFFFFFFFFFFFFFFFF8
:10180100FFFFFFFFFFFFFFDBDE4B3AF042356C5479
:101811004BB1322E2AEB21A92167190519041104B4
:10182100110411041104110519E4104200AF73FFF2
:10183100FFFFFFFFFFFFFFFFFFFFFFFFFFFFFFFFB7
:10184100FFFFFFFFFFFFFFFFFFFFFFFFFFFFFFFFA7
:10185100FFFFFFFFFF5DEF09324C32104B8F324F1C
:101861002A2E2ACC1989198921471905190411042D
:1018710011C410C410041104110411E41042003108
:1018810084FFFFFFFFFFFFFFFFFFFFFFFFFFFFFFE2
:10189100FFFFFFFFFFFFFFFFFFFFFFFFFFFFFFFF57
:1018A100FFFFFFFFFFEC5247194C320B2AEC21ECF2
:1018B100210C22915BEE4A061126190419E410E469
:1018C10010A7296621A308051904110411E4108247
:1018D10000F7BDFFFFFFFFFFFFFFFFFFFFFFFFFF60
:1018E100FFFFFFFFFFFFFFFFFFFFFFFFFFFFFFFF07
:1018F100FFFFFF35A58308882188218921AA218A34
:10190100216B42718CFFFF728C83080411C408297A
:1019110042FBDE5DEFEC5A830804110411041183CC
:1019210008E831DFFFFFFFFFFFFFFFFFFFFFFFFFC2
:10193100FFFFFFFFFFFFFFFFFFFFFFFFFFFFFFFFB6
:10194100FFBEF7C731C4102519261947194719A831
:10195100298A52284A55ADFFFFE831A30805194DE0
:101961006B4D6BFFFF7DEF4521C410041104110481
:1019710011620076ADFFFFFFFFFFFFFFFFFFFFFFDB
:10198100FFFFFFFFFFFFFFFFFFFFFFFFFFFFFFFF66
:10199100FF96B562000411041905110519C4088BDD
:1019A1004AB6B55DEFF7BDFFFF8E6B62002942AA13
:1019B1005A0842FFFFFFFFCC5283080411041104AF
:1019C10011A308AD52FFFFFFFFFFFFFFFFFFFFFF66
:1019D100FFFFFFFFFFFFFF1CE7FFFFFFFFFFFFFF11
:1019E100FF4E636200041104110411E41062008EC1
:1019F10063FFFFFFFFFFFFFFFFCF730100F39C2C8D
:101A01006396B5FFFFFFFF2D5B83000411041104F2
:101A110011E41067213DEFFFFFFFFFFFFFFFFFFF15
:101A2100FFF8BDB7B59EEFCB52B394FFFFFFFFDFC9
:101A3100FFE831A3080411041104110411A308499A
:101A410042FFF7FFF7FFFFFFFF6A4A01007284FFC1
:101A5100FFFFFFFFF7DFEF093AA3080411041104A8
:101A6100110411051118BEFFFFFFFFFFFFFFFFFF6C
:101A7100FFF07B6200E831C731410035A5FFFF5D12
:101A8100EF4621C4100411041104110411E410A340
:101A910008769DFFF7FFFFB7ADA308A308C7319EE6
:101AA100E7FFF7FFF776A5A308E41004110411047A
:101AB100110511051135A5FFFFFFFFFFFFFFFFFF17
:101AC100FFDBDEA7298300C410C410C4101CE79EED
:101AD100EF0511E41004110411041104110419C4D7
:101AE10008E510D16BD16BC5086400A50843002B34
:101AF10032779DB3842519C4100411041104110413
:101B01001125192609359DFFFFFFFFFFFFFFFFFF8D
:101B1100FFFFFFAF7362000419051982000D5B8E90
:101B21009B62100511041104110419E410850005CC
:101B310011C439815A407B229C43AC03A4839B820C
:101B4100728249C218A400C500E4100419041105E9
:101B51001947196711EC5ABEFFFFFFFFFFFFFFFF97
:101B6100FFDFFFDBDEC410E41004110511A418012E
:101B7100C08388E40005190419C50844214383235F
:101B8100D542FEE4FE27FF07FFA4FE64FE03FEA389
:101B9100FDE2FC42EC83B32462E510C4080419267B
:101BA10019A81987210090D3BCFFFFFFFFFFFFFF9A
:101BB100FFDFFFFFFF107C4200051905118328019B
:101BC100D044F8A348E400C508445A02EDE2FD02FE
:101BD100FE66FE74FFB8FF73FFE7F6A6F645F6A4AE
:101BE100F5C3FC62FCC2FCC2FCE3CBC4490611880C
:101BF100198701A49001F8EC9AFFFFFFFFFFFFFF97
:101C0100FFFFFFFFFFBEF7E83183000509824001B6
:101C1100C023F885F0A348A400445A02FD23CCC296
:101C2100DC04FE28FE48F646F624F6E4F564FDE3FE
:101C3100FC62FCC2FC02E402DCE2FCA47A4801671B
:101C410001C47824F802F884B07DE7FFFFFFFFFFAD
:101C5100FFFFFFFFFFFFFFDBDE2519A300C43802F2
:101C6100E022D844F8A6F8A4786300432183728364
:101C710039829B21F561FD22FDE2FCA2FC42FC427E
:101C8100FC42FC22AB8341C392045226012519A4D4
:101C91009844F823F802F8A4D09EEFFFFFFFFFFF5E
:101CA100FFFFFFFFFFFFFFFFFF9AD68729A5004334
:101CB100B822F823E065F8E8F807C983484200A391
:101CC1000084006329A27A62B3A2CB62D302BB82F1
:101CD1008A8339A400E500E500E508C46064D844BE
:101CE100F824F823F802F88388DBC6FFFFFFFFFF23
:101CF100FFFFFFFFFFFFFFFFFFFFFF3DE7505B0817
:101D01003123E843F844F065F809F9ABF989D106C4
:101D110089A3484218020042006100820062006209
:101D2100008300A320C450A58885D865F844F844F1
:101D3100F823F823F803D08210C7295DEFFFFFFFD6
:101D4100FFFFFFFFFFFFFFFFFFFFFFFFFFFFFF6C35
:101D510032A53802D823F865F866F8A7F84AF90CD5
:101D6100FA4DFA4CEA0BD2A9B968B147A927B107D4
:101D7100B907D1E7E8C7F8A7F865F865F844F8238B
:101D8100F803F802D0A3280509C408EC5AFFFFFFA5
:101D9100FFFFFFFFFFFFFFFFFFFFFFFFFFFBDE0571
:101DA10019C400A741E6C003F886F8A7F887F886AA
:101DB100F8C7F829F98AF9ABF9ABF98BF96AF9296E
:101DC100F908F9C7F8A6F886F865F864F823F80267
:101DD100F006B12529E400E41025192519149DFF09
:101DE100FFFFFFFFFFFFFFFFFFFFFFFFFF96AD625A
:101DF1000082083595BACE8BA244D025F887F8A782
:101E0100F8C7F8A7F887F886F886F886F887F8A75C
:101E1100F8A7F8A6F885F865F864F824F064B80D19
:101E210093BBB6CF6383080411E4106621493A5D80
:101E3100EFFFFFFFFFFFFFFFFFFFFFFFFFD3944215
:101E410000E410BBCEFFFFBEE776B5CCAA07C145C3
:101E5100E045F846F866F886F886F886F886F8656B
:101E6100F845F865F865E844D043A8018882903CBC
:101E7100D7FFEF559583080411041105194619B3CD
:101E810094FFFFFFFFFFFFFFFFFFFFFFFFB3944141
:101E91000086215DDFFFFFFFFFFFFFDFE77AC6D38B
:101EA100B44EB32AC268D1E6E0A6E8A5E8A5E8E603
:101EB100D888C906A922A802A800A000C800D8F79E
:101EC100E5FFE7F8ADC410E4100411E41005118B2F
:101ED1004AFFFFFFFFFFFFFFFFFFFFFFFF55A54188
:101EE10000A7295DDFFFF7FFFFFFFFFFFFFFFFFFF8
:101EF100FFFFEF7DDFDBCE59CEF8CDD7CDF7C5792A
:101F0100CEFBBEABA203F045F842D043E800F0722D
:101F1100D4FFDF39AEE410E4100411E41005118799
:101F210029FFFFFFFFFFFFFFFFFFFFFFFF59CE83E9
:101F31000846211CD7FFF7FFFFFFFFFFFFFFFFFF51
:101F4100FFFFFFFFFFFFFFFFFFFFFFFFFFFFFFFFA0
:101F5100FFFFEF8BBA04F845F862E044F000F88E19
:101F6100DBFFDFF8A5C410E410E4100411E4102530
:101F710019FFFFFFFFFFFFFFFFFFFFFFFFBEF78717
:101F810029830839B6FFF7DFF7FFFFFFFFFFFFFFE8
:101F9100FFFFFFFFFFFFFFFFFFFFFFFFFFFFFFFF50
:101FA100FFBEE74ABA03F845F864F844F800F86E52
:101FB100E3FFD7F48C83080411E410E410E4100566
:101FC10019FFFFFFFFFFFFFFFFFFFFFFFFFFFFEF16
:101FD1007300007284FFEFBEEFDFFFFFFFFFFFFF23
:101FE100FFFFFFFFFFFFFFFFFFFFFFFFFFFFFFFF00
:101FF100FFDFE78BBA03F845F845F823F800F8D37B
:10200100D4FFD74E5B2100293A55A58308C410257A
:1020110019FFFFFFFFFFFFFFFFFFFFFFFFFFFFFBB9
:10202100DEA308E8319EDF9EE7BFEFFFFFFFFFFF62
:10203100FFFFFFFFFFFFFFFFFFFFFFFFFFFFFFFFAF
:10204100FFFFF751BC02E003F803F043E0ECC27E6E
:10205100CFFCBE46212100D394FFFF5184000087AD
:1020610029FFFFFFFFFFFFFFFFFFFFFFFFFFFFFF55
:10207100FF51840000F48CFFEF9EE7BFEFDFFFFF0D
:10208100FFFFFFFFFFFFFFFFFFFFFFFFFFFFFFFF5F
:10209100FFFFFF3DDF55BD52BC72BCB7B55DC7FF49
:1020A100DFF06B0000093ABFF7FFFFFFFF149D55FA
:1020B100A5FFFFFFFFFFFFFFFFFFFFFFFFFFFFFF89
:1020C100FFFFFFAC4AA408BBBEDFE77EE7BEEFDF40
:1020D100F7DFFFFFFFFFFFFFFFFFFFFFFFFFFFFF37
:1020E100FFDFFFDFF7FFEFDFDFBFD79ED7DFDFD8EF
:1020F100A583082611DBD6FFFFFFFFFFFFFFFFFFD0
:10210100FFFFFFFFFFFFFFFFFFFFFFFFFFFFFFFFDE
:10211100FF79EE8BDC2131A9213DCFBFDF7EDF9E30
:10212100E7BEEFBFEFDFF7DFF7DFF7DFF7DFF7BF7F
:10213100EFBEEF9EE77EDF5ED75ED7DFDF9AB62682
:10214100194208EDA3BFFFFFFFFFFFFFFFFFFFFFE6
:10215100FFFFFFFFFFFFFFFFFFFFFFFFFFFFFF7419
:10216100DDC0DB00FE42EE024289217BB6DFDF7E6D
:10217100D77EDF7EDF9EE79EE79EE79EE79EE77EB6
:10218100DF7EDF5DD75DD79EDFFFE7F8A50711E3AF
:102191001802C560FDE6D3DBEEFFFFFFFFFFFFFF87
:1021A100FFFFFFFFFFFFFFFFFFFFFFFFFF9EF78422
:1021B100BAC1FC42FE82FEA2FE8183452174745E97
:1021C100C7DFDF7ED75ED75DD75ED75ED75DD75DD0
:1021D100D75ED79EDFFFE73DC7F1638408425226F1
:1021E100E629FF86FEE0F36AC3FFFFFFFFFFFFFF63
:1021F100FFFFFFFFFFFFFFFFFFFFFFFFFF18DEC134
:10220100D2A2FD22FE42FE42FE62FEE2D4416A49B2
:102211004253743BA63EC7BFD7BFD7BFD7BFDFBFAF
:10222100D73EC71AA6F263A729824122B462FE8370
:10223100FEAAFE0FFF67FD63BA3CEFFFFFFFFFFF42
:10224100FFFFFFFFFFFFFFFFFFFFFFFFFF9AE6809A
:10225100D221FDC2FDE2F5C2F582F582FD62FD618A
:10226100DC219B846AE96A2C63AF6311746E632C71
:1022710063895A0452817AC2CBE2FC62FD82FDC2BB
:10228100FDC2FDE4FD24FD62CA1CE7FFFFFFFFFF65
:10229100FFFFFFFFFFFFFFFFFFFFFFFFFFFFFFB19B
:1022A100CC81D2C0F3C1FC02FD02FDE2FCC2FCC242
:1022B100FC81FC80FBC0C9A48135AD59CE719C2144
:1022C1008100DAA1FB82FCA2FC82FCA2FC02FD22BD
:1022D100FDE2FC00FC60DA90CCFFFFFFFFFFFFFF97
:1022E100FFFFFFFFFFFFFFFFFFFFFFFFFFFFFFFFFD
:1022F100FF59DE0DC406CBE4D203DB03DBE3DAC313
:10230100D2A4C209B3D2BC9EF7FFFFFFFFFFFFFBC0
:10231100E60EB4A6BA83D2E3E202EB22EB22E30398
:10232100DBE4D26AC3B6D5FFFFFFFFFFFFFFFFFF6C
:01233100FFAC
:0D4BDF004A00E8F81FFFE0F80007E0001FA3
:064150007BFF7A16799E48
:10415600900116EBF0A3EAF0A3E9F0900080E0FAF4
:10416600A3E0FB90005EE4F0A37414F0A3E4F0A3D4
:10417600741FF0E4FDFCFFFE12404C900082E0FE4E
:10418600A3E0FF24ECFDEE34FFFC900080E0FAA3F0
:10419600E0FB90005EEEF0A3EFF0A3E4F0A3741F43
:1041A600F0E4FFFE12404C74FF90007CF0A3F09008
:1041B60000C0E4F0A3741FF0900116E0F9A3E0FA42
:1041C600A3E09000C2C9F0A3EAF0A3E9F0A374103B
:1041D600F0A37401F074FFFBFA7D027C00E4FFFE9D
:1041E6001247C8900083E024EEFD900082E034FF81
:1041F600FC9000C0E4F0A3741FF0A374FFF0A37456
:1042060014F0A37491F0A37410F0A37401F074FF7A
:10421600FBFAE4FFFE1247C8900080E0FAA3E0FB39
:10422600900083E024ECFE900082E034FF90005E74
:10423600F0A3CEF0E4A3F0A3F07D14FCFFFE024051
:014246004C2B
:1044D9007BFF7A1479A01241569000C0E4F0A374CE
:1044E9001FF0A374FFF0A37414F0A374B5F0A374C0
:1044F90010F0A37401F07B007AF87D1E7C00E4FFC4
:10450900FE1247C89000C0E4F0A3741FF0A374FF23
:10451900F0A37414F0A374BEF0A37410F0A3740193
:10452900F07B007AF87D3C7C00E4FFFE1247C890DE
:1045390000C0E4F0A3741FF0A374FFF0A37414F097
:10454900A374CBF0A37410F0A37401F07BE07A0795
:104559007D5A7C00E4FFFE1247C89000C0E4F0A336
:10456900741FF0A374FFF0A37414F0A374E0F0A314
:104579007410F0A37401F07B1F7A007D787C00E44D
:10458900FFFE1247C87FDC7E05124B1B7FDC7E05D0
:03459900024B1BB7
:103105007BFF7A1479FB124156900080E0FAA3E028
:10311500FB900083E024ECFE900082E034FF9000F9
:103125005EF0A3CEF074FFA3F0A3F07D147C00E461
:10313500FFFE12404C900081E024CEFF900080E01D
:1031450034FFFE9000A374FFF0A374E0F0A374FFB6
:10315500F0A37415F0A3740EF0A37410F0A374011A
:10316500F07B1F7A007D1E7C001223327FF47E01E6
:10317500124B1B900080E0FAA3E0FB900083E02453
:10318500ECFE900082E034FF90005EF0A3CEF0E408
:10319500A3F0A3F07D14FCFFFE12404C900081E0EB
:1031A50024CEFF900080E034FFFE9000A374FFF072
:1031B500A374E0F0A374FFF0A37415F0A37414F0E6
:1031C500A37410F0A37401F07B1F7A007D1E7C00B0
:1031D5001223327FF47E01124B1B900080E0FAA38C
:1031E500E0FB900083E024ECFE900082E034FF9049
:1031F500005EF0A3CEF0A374F8F0A3E4F07D14FC18
:10320500FFFE12404C900081E024CEFF900080E04C
:1032150034FFFE9000A374FFF0A374E0F0A374FFE5
:10322500F0A37415F0A3741AF0A37410F0A374013D
:10323500F07B1F7A007D1E7C001223327FF47E0115
:10324500124B1B900080E0FAA3E0FB900083E02482
:10325500ECFE900082E034FF90005EF0A3CEF0A378
:103265007407F0A374E0F07D147C00E4FFFE1240C7
:103275004C900081E024CEFF900080E034FFFE906A
:1032850000A374FFF0A374E0F0A374FFF0A374151A
:10329500F0A3741EF0A37410F0A37401F07B1F7AE1
:1032A500007D1E7C001223327FF47E01124B1B90A1
:1032B5000080E0FAA3E0FB900083E024ECFE9000A0
:1032C50082E034FF90005EF0A3CEF0A3E4F0A37497
:1032D5001FF07D147C00E4FFFE12404C900081E05D
:1032E50024CEFF900080E034FFFE9000A374FFF031
:1032F500A374E0F0A374FFF0A37415F0A37424F095
:10330500A37410F0A37401F074FFFBFA7D1E7C001A
:0A3315001223327FF47E01024B1BED
:10391600E490011BF07BFF7A15792912415690003D
:1039260080E0FAA3E0FB900083E024ECFE900082A6
:10393600E034FF90005EF0A3CEF074FFA3F0A3F096
:103946007D147C00E4FFFE12404CE490011BF090D5
:103956000080E0C313FEA3E01324B0FDEE34FFFCA9
:1039660090011BE0F975F00FA4FBAAF02DFFEA3CCD
:10397600FEC006C007900082E0C313FEA3E0132436
:10398600B0FFEE34FFCF2BFDEF3AFCC004C005902C
:103996000080E0C313FCA3E013FDE975F00FA42D2E
:1039A600FFE5F03CCF24ECFBEF34FFFAA3E0C313B2
:1039B600FCA3E013FDE975F00FA42DFFE5F03CCF65
:1039C60024ECCF34FF900101F0A3EFF0D005D00432
:1039D600D007D00612471E90011BE025E024E8F52B
:1039E60082E43400F583E0FFA3E090007CCFF0A3EF
:1039F600EFF090011BE004F0E0C394055003023998
:103A0600557FDC7E05124B1B900080E0FAA3E0FB9D
:103A1600900083E024ECFE900082E034FF90005E8C
:103A2600F0A3CEF074FFA3F0A3F07D147C00E4FFB6
:103A3600FE12404CE490011BF0900080E0C313FEA0
:103A4600A3E01324B0FDEE34FFFC90011BE0F975F2
:103A5600F00FA4FBAAF02DFFEA3CFEC006C00790BB
:103A66000082E0C313FEA3E01324B0FFEE34FFCFC1
:103A76002BFDEF3AFCC004C005900080E0C313FCA8
:103A8600A3E013FDE975F00FA42DFFE5F03CCF246C
:103A9600ECFBEF34FFFAA3E0C313FCA3E013FDE94C
:103AA60075F00FA42DFFE5F03CCF24ECCF34FF904A
:103AB6000109F0A3EFF0D005D004D007D006124BD1
:103AC6006790011BE025E024E8F582E43400F583E5
:103AD600E0FFA3E090007CCFF0A3EFF090011BE0A5
:103AE60004F0E0C394055003023A3F7FDC7E0502F2
:023AF6004B1B68
:103CA300E490011CF07BFF7A15793F124156900096
:103CB30080E0FAA3E0FB900083E024ECFE90008216
:103CC300E034FF90005EF0A3CEF074FFA3F0A3F006
:103CD3007D147C00E4FFFE12404CE490011CF09044
:103CE3000080E0C313FEA3E01324B0FDEE34FFFC19
:103CF30090011CE0F975F019A4FBAAF02DFFEA3C32
:103D0300FEC006C007900082E0C313FEA3E01324A5
:103D1300CEFFEE34FFCF2BFDEF3AFCE925E024E89C
:103D2300F582E43400F583E0FAA3E0FB900070E44D
:103D3300F0A3741EF0E4A3F0A3F0D007D00612356D
:103D43003590011CE004F0E0C3940540927FDC7ED3
:103D530005124B1B900080E0FAA3E0FB900083E088
:103D630024ECFE900082E034FF90005EF0A3CEF0DE
:103D730074FFA3F0A3F07D147C00E4FFFE12404C1B
:103D8300E490011CF0900080E0C313FEA3E0132431
:103D9300B0FDEE34FFFC90011CE0F975F019A4FBB3
:103DA300AAF02DFFEA3CFEC006C007900082E0C3E4
:103DB30013FEA3E01324CEFFEE34FFCF2BFDEF3A27
:103DC300FCE925E024E8F582E43400F583E0FAA376
:103DD300E0FB900070E4F0A3741EF0A3E4F0A304EE
:103DE300F0D007D00612353590011CE004F0E0C393
:0B3DF300940540917FDC7E05024B1B15
:10433D007BFF7A15795512415690007C74F8F0A3E5
:10434D00E4F090007EF0A3741FF09000F774FFF07E
:10435D00A37415F0A37468F0E4A3F07B0C7D1EFC30
:10436D007F0AFE12459C9000F774FFF0A37415F0C0
:10437D00A37488F0A37401F07B0C7D2D7C007F0A63
:10438D007E0012459C9000F774FFF0A37415F0A306
:10439D0074A8F0E4A3F07B0C7D3CFC7F0AFE124573
:1043AD009C9000F774FFF0A37415F0A374C6F0E4AD
:1043BD00A3F07B107D50FC7F0AFE12459C9000F708
:1043CD0074FFF0A37415F0A374E3F0A37401F07BF4
:1043DD00107D647C007F0A7E0012459C9000F7746E
:1043ED00FFF0A37415F0A374FFF0E4A3F07B107D30
:0F43FD0078FC7F0AFE12459C7FB07E04024B1BAA
:10465E007BFF7A16791A1241569000A374FFF0A3CD
:10466E0074E0F0A374FFF0A37416F0A3742DF0A3FE
:10467E007410F0E4A3F07B1FFA7D1EFC7F0AFE127D
:10468E0023329000A374FFF0A374E0F0A374FFF044
:10469E00A37416F0A3744EF0A37410F0A37401F07B
:1046AE007B1F7A007D327C007F0A7E0012233290BF
:1046BE0000A374FFF0A374E0F0A374FFF0A37416CC
:1046CE00F0A37464F0A37418F0A37401F07B1F7A46
:1046DE00007D467C007F0A7E001223329000A37478
:1046EE00FFF0A374E0F0A374FFF0A37416F0A374AC
:1046FE0079F0A37420F0A37401F07B1F7A007D641F
:10470E007C007F0A7E001223327FB07E04024B1B98
:104247007BFF7A167988124156900080E0FAA3E046
:10425700FB900083E024ECFE900082E034FF9000A6
:104267005EF0A3CEF074FFA3F0A3F07D147C00E40E
:10427700FFFE12404C7BFF7A1679B27D1E7C007FD1
:104287001E7E0012440C9000A374FFF0A374E0F0AC
:10429700A374FFF0A37416F0A3749BF0A37410F03B
:1042A700A37401F07B1F7A007D4B7C007F2A7E0080
:1042B7001223327BFF7A1679B27D1E7C007F5A7EED
:1042C7000012440C9000A374FFF0A374E0F0A374F1
:1042D700FFF0A37416F0A3749BF0A37410F0A374FB
:1042E70001F07B1F7A007D4B7C007F667E001223E6
:1042F700327BFF7A1679B27D1E7C007F967E001294
:10430700440C9000A374FFF0A374E0F0A374FFF0D3
:10431700A37416F0A3749BF0A37410F0A37401F0B8
:104327007B1F7A007D4B7C007FA27E001223327FA9
:06433700B07E04024B1BE6
:1025D300E4900111F0A3F0A3F0A3F0A3F012415093
:1025E300900081E024E8FF900080E034FFFE90003B
:1025F300F774FFF0A37416F0A374AEF0A37401F0A4
:102603007B10E4FDFC12459C900080E0FCA3E0FD00
:1026130024CCFFEC34FFFEED24E2FBEC34FFFA9014
:10262300005EE4F0A37412F0A374F8F0A3E4F07D69
:1026330002FC12404C90007C74F8F0A3E4F012000A
:1026430000EF700302280B900080E0FEA3E0FF90F0
:102653000000E0FCA3E0FDC39FEC9E50E1900082EC
:10266300E0FEA3E0FF900000E0FAA3E0FBC39FEAD3
:102673009E50CB900081E024E8FF900080E034FF7F
:10268300FED3ED9FEC9E407BEB9410EA94005073D5
:10269300124150900114E0FFA3E090007CCFF0A31F
:1026A300EFF0900081E024E8FF900080E034FFFE2B
:1026B3009000F774FFF0A37416F0A374AEF0A37444
:1026C30001F07B10E4FDFC12459C900080E0FCA32C
:1026D300E0FD24CCFFEC34FFFEED24E2FBEC34FF01
:1026E300FA90005EE4F0A37412F090007CE0FDA386
:1026F300E0900060CDF0A3EDF07D027C0012404C31
:10270300022641900080E0FEA3E0FF24C4FDEE34E6
:10271300FFFC900000E0FAA3E0FBD39DEA9C50038A
:102723000227EFEF24E2FFEE34FFFEC3EB9FEA9EA6
:1027330040030227EFC3900000E09414900000E0F0
:10274300940040030227EF900080E0FCA3E0FD2407
:10275300CCFFEC34FFFEC006C007ED24E2FBEC34F3
:10276300FFFA90005EE4F0A37412F0900112E0FE11
:10277300A3E0FF7C007D05122F1EED25E0FFEC3367
:10278300FE74E82FF58274003EF583E0FFA3E0902A
:102793000060CFF0A3EFF0D007D0067D027C0012DB
:1027A300404C900112E475F001122F89AFF0FE7CCA
:1027B300007D05122F1EED25E0FFEC33FE74E82F9C
:1027C300F58274003EF583E0FFA3E090007CCFF038
:1027D300A3EFF090007CE0FFA3E0900114CFF0A3FF
:1027E300EFF07F0A7E00124B1B022641900000E0AF
:1027F300FEA3E0FFA3E0FCA3E0FD90007CE0FAA3CE
:10280300E0FB1200000226417F0A7E00124B1B02EE
:0228130026415C
:104B1B00E4FDFCC3ED9FEE6480F8EC6480985015C7
:104B2B00E4FBFA0BBB00010ABA03F8BBE8F50DBDB9
:054B3B0000010C80DE0A
:014B40002252
:104B4100E4FDFCC3ED9FEE6480F8EC6480985015A1
:104B5100E4FBFA0BBB00010AEB64014A70F50DBDE1
:054B610000010C80DEE4
:014B6600222C
:0300000002485A59
:0C485A00787FE4F6D8FD7581070248A1C4
:0A4BEC0042007C000042007EFFFF43
:104BC6007E80EE60135F6004D2958002C295C29724
:084BD600D297EEC313FE80EA42
:014BDE0022B4
:0A4C3000C292C293124BC6D2932227
:054C2100124C30E4FF1D
:0A4C2600D292C293124BC6D2932221
:104BF700AD07AC06C293D292ECFF124BC6AF0512BB
:054C07004BC6D2932210
:084C4300124C30AF05024C26B3
:094C3A00900087A3E0FF024C305A
:0848E6009000C7EEF0A3EFF013
:1048EE00900081E024FFFB900080E034FFFA9000FE
:1048FE0083E024FFFE900082E034FF9000D1F0A30D
:10490E00CEF0E4FDFCFFFE1249E6E49000C9F0A3F0
:10491E00F0900080E0FEA3E0FFC39000CAE09F90FD
:10492E0000C9E09E5032E4FBFAD3900083E09B90E6
:10493E000082E09A40129000C7E0FEA3E0FF124B07
:10494E00F70BBB00010A80E19000CAE004F070C1D1
:08495E009000C9E004F080B9EB
:01496600222E
:104AF100AB07AA068D828C83C006C007AE83AF8246
:104B01009000D1EEF0A3EFF0D007D0061249E69065
:0A4B1100007CE0FEA3E0FF024BF77A
:104BAB00D2B37F327E00124B1BC2B37F327E001218
:0B4BBB004B1BD2B37F327E00024B1B6D
:103AF800124BAB7FCF124C217FD9124C267F30124C
:103B08004C267FED124C307F64124C267F03124CFA
:103B1800267F12124C267F81124C267FE8124C30E9
:103B28007F85124C267F10124C267F7A124C267FF6
:103B3800CB124C307F39124C267F2C124C26E4FFD6
:103B4800124C267F34124C267F02124C267FF71225
:103B58004C307F20124C267FEA124C21124C267FD3
:103B6800C0124C307F1B124C267FC1124C307F1282
:103B7800124C267FC5124C307F08124C267F261225
:103B88004C267FC7124C307FB7124C267F36124C1A
:103B9800307F08124C267F3A124C307F55124C2643
:103BA8007FB1124C217F1A124C267FB6124C307FFF
:103BB8000A124C267FA2124C267FF2124C217F2635
:103BC800124C307F01124C267FE0124C307F0F12CE
:103BD8004C267F1D124C267F1A124C267F0A124C47
:103BE800267F0D124C267F07124C267F49124C2641
:103BF8007F66124C267F3B124C267F07124C267F8D
:103C080011124C267F01124C267F09124C267F0583
:103C1800124C261F124C267FE1124C217F18124CA1
:103C2800267F1D124C267F02124C267F0F124C262F
:103C38007F04124C267F36124C267F13124C267FA7
:103C48004C124C267F07124C267F13124C267F0FEE
:103C5800124C267F2E124C260F124C267F05124C32
:103C6800267F2B124C21124C260F124C267F3F1216
:103C78004C267F2A124C21124C26124C267FEF121A
:103C88004C267F11124C307F787E00124B1B7F2907
:0B3C9800124C30E4FF124967D2B22248
:1049E6009000CBEEF0A3EFF0900089A3E0FF124C0D
:1049F600309000CBE0FF124C26A3E0FF124C26EAD3
:104A0600FF124C26AF03124C2690008BA3E0FF1238
:104A16004C30ECFF124C26AF05124C269000D1E02C
:0D4A2600FF124C26A3E0FF124C26024C3A72
:104B8C00AB07AA068D828C83C006C007AE83AF82AA
:0F4B9C009000D1EEF0A3EFF0D007D0060249E66B
:10496700900089E4F0A3742AF0A3E4F0A3742BF079
:10497700900087E4F0A3742CF0EF14601F146031EB
:1049870014604324037057900080E4F0A374F0F0A0
:10499700A37401F0A37440F07D08803D90008074FB
:1049A70001F0A37440F0A3E4F0A374F0F07D6880F5
:1049B70028900080E4F0A374F0F0A37401F0A374CE
:1049C70040F07DC880139000807401F0A37440F01C
:0F49D700A3E4F0A374F0F07DA87F36124C4322C6
:10486600024A7CE493A3F8E493A34003F68001F2A2
:1048760008DFF48029E493A3F85407240CC8C33353
:10488600C4540F4420C8834004F456800146F6DF22
:10489600E4800B0102040810204080904BDFE47E88
:1048A600019360BCA3FF543F30E509541FFEE49317
:1048B600A360010ECF54C025E060A840B8E493A3DE
:1048C600FAE493A3F8E493A3C8C582C8CAC583CA09
:1048D600F0A3C8C582C8CAC583CADFE9DEE780BEC1
:014BF60000BE
:102ED800BB010689828A83E0225002E722BBFE02F8
:092EE800E32289828A83E493222B
:102EF100BB010CE58229F582E5833AF583E0225096
:102F010006E92582F8E622BBFE06E92582F8E222DF
:0D2F1100E58229F582E5833AF583E49322F9
:102F1E00BC000BBE0029EF8DF084FFADF022E4CC97
:102F2E00F875F008EF2FFFEE33FEEC33FCEE9DEC60
:102F3E00984005FCEE9DFE0FD5F0E9E4CEFD22EDA6
:102F4E00F8F5F0EE8420D21CFEADF075F008EF2FF0
:102F5E00FFED33FD4007985006D5F0F222C398FDE1
:052F6E000FD5F0EA227E
:102F7300C5F0F8A3E028F0C5F0F8E58215827002E9
:062F83001583E038F02286
:102F8900A3F8E0C5F025F0F0E582158270021583FB
:062F9900E0C838F0E82258
:102F9F00E88FF0A4CC8BF0A42CFCE98EF0A42CFCD1
:102FAF008AF0EDA42CFCEA8EF0A4CDA8F08BF0A44F
:102FBF002DCC3825F0FDE98FF0A42CCD35F0FCEBAE
:102FCF008EF0A4FEA9F0EB8FF0A4CFC5F02ECD3973
:0F2FDF00FEE43CFCEAA42DCE35F0FDE43CFC22E0
:102FEE0075F008758200EF2FFFEE33FECD33CDCC9A
:102FFE0033CCC58233C5829BED9AEC99E58298401D
:10300E000CF582EE9BFEED9AFDEC99FC0FD5F0D6F9
:10301E00E4CEFBE4CDFAE4CCF9A88222B800C1B923
:10302E000059BA002DEC8BF084CFCECDFCE5F0CB61
:10303E00F97818EF2FFFEE33FEED33FDEC33FCEB9A
:10304E0033FB10D703994004EB99FB0FD8E5E4F955
:10305E00FA227818EF2FFFEE33FEED33FDEC33FC42
:10306E00C933C910D7059BE99A4007EC9BFCE99A36
:10307E00F90FD8E0E4C9FAE4CCFB2275F010EF2F7B
:10308E00FFEE33FEED33FDCC33CCC833C810D7077B
:10309E009BEC9AE899400AED9BFDEC9AFCE899F8B6
:0E30AE000FD5F0DAE4CDFBE4CCFAE4C8F92249
:0C30BC00ECF0A3EDF0A3EEF0A3EFF02287
:1030C800A8828583F0D083D0821230DF1230DF12DD
:1030D80030DF1230DFE473E493A3C583C5F0C58302
:1030E800C8C582C8F0A3C583C5F0C583C8C582C852
:0130F80022B5
:0C30F900A42582F582E5F03583F58322E2
:104C0C00E4FFFE122ED8600C0FEF70010E09E97054
:054C1C00F20A80EF2206
:00000001FF
